{
	"data": {
		"bytecode": {
			"linkReferences": {},
			"object": "60a060405234801561000f575f5ffd5b506040516117e03803806117e0833981810160405281019061003191906100c9565b8073ffffffffffffffffffffffffffffffffffffffff1660808173ffffffffffffffffffffffffffffffffffffffff1681525050506100f4565b5f5ffd5b5f73ffffffffffffffffffffffffffffffffffffffff82169050919050565b5f6100988261006f565b9050919050565b6100a88161008e565b81146100b2575f5ffd5b50565b5f815190506100c38161009f565b92915050565b5f602082840312156100de576100dd61006b565b5b5f6100eb848285016100b5565b91505092915050565b6080516116d461010c5f395f6104e401526116d45ff3fe608060405234801561000f575f5ffd5b5060043610610060575f3560e01c80631f79a1e914610064578063a87430ba14610094578063c3c5a547146100cd578063db5faa4f146100fd578063f5bcfdb214610119578063f5c91a0814610135575b5f5ffd5b61007e60048036038101906100799190610ac7565b610151565b60405161008b9190610b0c565b60405180910390f35b6100ae60048036038101906100a99190610b7f565b61016e565b6040516100c49a99989796959493929190610c38565b60405180910390f35b6100e760048036038101906100e29190610b7f565b610387565b6040516100f49190610b0c565b60405180910390f35b61011760048036038101906101129190610e62565b6103a4565b005b610133600480360381019061012e9190610f24565b6107e9565b005b61014f600480360381019061014a9190610f6b565b610910565b005b6001602052805f5260405f205f915054906101000a900460ff1681565b5f602052805f5260405f205f91509050805f015f9054906101000a900473ffffffffffffffffffffffffffffffffffffffff16908060010180546101b190610fd6565b80601f01602080910402602001604051908101604052809291908181526020018280546101dd90610fd6565b80156102285780601f106101ff57610100808354040283529160200191610228565b820191905f5260205f20905b81548152906001019060200180831161020b57829003601f168201915b50505050509080600201805461023d90610fd6565b80601f016020809104026020016040519081016040528092919081815260200182805461026990610fd6565b80156102b45780601f1061028b576101008083540402835291602001916102b4565b820191905f5260205f20905b81548152906001019060200180831161029757829003601f168201915b5050505050908060030180546102c990610fd6565b80601f01602080910402602001604051908101604052809291908181526020018280546102f590610fd6565b80156103405780601f1061031757610100808354040283529160200191610340565b820191905f5260205f20905b81548152906001019060200180831161032357829003601f168201915b505050505090806004015f9054906101000a900460ff16908060040160019054906101000a900460ff1690806005015490806006015490806007015490806008015490508a565b6002602052805f5260405f205f915054906101000a900460ff1681565b60025f3373ffffffffffffffffffffffffffffffffffffffff1673ffffffffffffffffffffffffffffffffffffffff1681526020019081526020015f205f9054906101000a900460ff161561042e576040517f08c379a000000000000000000000000000000000000000000000000000000000815260040161042590611050565b60405180910390fd5b60015f8381526020019081526020015f205f9054906101000a900460ff161561048c576040517f08c379a0000000000000000000000000000000000000000000000000000000008152600401610483906110de565b60405180910390fd5b5f3360405160200161049e9190611141565b604051602081830303815290604052805190602001205f1c90505f6040516020016104c8906111af565b604051602081830303815290604052805190602001205f1c90507f000000000000000000000000000000000000000000000000000000000000000073ffffffffffffffffffffffffffffffffffffffff16633bc778e3866001858886896040518763ffffffff1660e01b81526004016105469695949392919061121f565b5f6040518083038186803b15801561055c575f5ffd5b505afa15801561056e573d5f5f3e3d5ffd5b505050506001805f8681526020019081526020015f205f6101000a81548160ff0219169083151502179055506040518061014001604052803373ffffffffffffffffffffffffffffffffffffffff16815260200189815260200188815260200160405180602001604052805f81525081526020016001151581526020018715158152602001606481526020014281526020015f8152602001468152505f5f3373ffffffffffffffffffffffffffffffffffffffff1673ffffffffffffffffffffffffffffffffffffffff1681526020019081526020015f205f820151815f015f6101000a81548173ffffffffffffffffffffffffffffffffffffffff021916908373ffffffffffffffffffffffffffffffffffffffff160217905550602082015181600101908161069f9190611416565b5060408201518160020190816106b59190611416565b5060608201518160030190816106cb9190611416565b506080820151816004015f6101000a81548160ff02191690831515021790555060a08201518160040160016101000a81548160ff02191690831515021790555060c0820151816005015560e0820151816006015561010082015181600701556101208201518160080155905050600160025f3373ffffffffffffffffffffffffffffffffffffffff1673ffffffffffffffffffffffffffffffffffffffff1681526020019081526020015f205f6101000a81548160ff0219169083151502179055503373ffffffffffffffffffffffffffffffffffffffff167f520ca5fae6a0f94dfe03bd8f07abecf9eaf46cd82b187fa12b1bc2e981b76a65878a466040516107d7939291906114e5565b60405180910390a25050505050505050565b60025f3373ffffffffffffffffffffffffffffffffffffffff1673ffffffffffffffffffffffffffffffffffffffff1681526020019081526020015f205f9054906101000a900460ff16610872576040517f08c379a00000000000000000000000000000000000000000000000000000000081526004016108699061156b565b60405180910390fd5b805f5f3373ffffffffffffffffffffffffffffffffffffffff1673ffffffffffffffffffffffffffffffffffffffff1681526020019081526020015f2060030190816108be9190611416565b503373ffffffffffffffffffffffffffffffffffffffff167f4b5e39575e1a46f75b7284892d6c0e107ea9257d002f0bbbc06efa02a87559b8826040516109059190611589565b60405180910390a250565b60025f8373ffffffffffffffffffffffffffffffffffffffff1673ffffffffffffffffffffffffffffffffffffffff1681526020019081526020015f205f9054906101000a900460ff16610999576040517f08c379a0000000000000000000000000000000000000000000000000000000008152600401610990906115f3565b60405180910390fd5b805f5f8473ffffffffffffffffffffffffffffffffffffffff1673ffffffffffffffffffffffffffffffffffffffff1681526020019081526020015f20600501819055505f5f8373ffffffffffffffffffffffffffffffffffffffff1673ffffffffffffffffffffffffffffffffffffffff1681526020019081526020015f206007015f815480929190610a2c9061163e565b91905055508173ffffffffffffffffffffffffffffffffffffffff167ffc577563f1b9a0461e24abef1e1fcc0d33d3d881f20b5df6dda59de4aae2c82182604051610a779190611685565b60405180910390a25050565b5f604051905090565b5f5ffd5b5f5ffd5b5f819050919050565b610aa681610a94565b8114610ab0575f5ffd5b50565b5f81359050610ac181610a9d565b92915050565b5f60208284031215610adc57610adb610a8c565b5b5f610ae984828501610ab3565b91505092915050565b5f8115159050919050565b610b0681610af2565b82525050565b5f602082019050610b1f5f830184610afd565b92915050565b5f73ffffffffffffffffffffffffffffffffffffffff82169050919050565b5f610b4e82610b25565b9050919050565b610b5e81610b44565b8114610b68575f5ffd5b50565b5f81359050610b7981610b55565b92915050565b5f60208284031215610b9457610b93610a8c565b5b5f610ba184828501610b6b565b91505092915050565b610bb381610b44565b82525050565b5f81519050919050565b5f82825260208201905092915050565b8281835e5f83830152505050565b5f601f19601f8301169050919050565b5f610bfb82610bb9565b610c058185610bc3565b9350610c15818560208601610bd3565b610c1e81610be1565b840191505092915050565b610c3281610a94565b82525050565b5f61014082019050610c4c5f83018d610baa565b8181036020830152610c5e818c610bf1565b90508181036040830152610c72818b610bf1565b90508181036060830152610c86818a610bf1565b9050610c956080830189610afd565b610ca260a0830188610afd565b610caf60c0830187610c29565b610cbc60e0830186610c29565b610cca610100830185610c29565b610cd8610120830184610c29565b9b9a5050505050505050505050565b5f5ffd5b5f5ffd5b7f4e487b71000000000000000000000000000000000000000000000000000000005f52604160045260245ffd5b610d2582610be1565b810181811067ffffffffffffffff82111715610d4457610d43610cef565b5b80604052505050565b5f610d56610a83565b9050610d628282610d1c565b919050565b5f67ffffffffffffffff821115610d8157610d80610cef565b5b610d8a82610be1565b9050602081019050919050565b828183375f83830152505050565b5f610db7610db284610d67565b610d4d565b905082815260208101848484011115610dd357610dd2610ceb565b5b610dde848285610d97565b509392505050565b5f82601f830112610dfa57610df9610ce7565b5b8135610e0a848260208601610da5565b91505092915050565b610e1c81610af2565b8114610e26575f5ffd5b50565b5f81359050610e3781610e13565b92915050565b5f5ffd5b5f81905082602060080282011115610e5c57610e5b610e3d565b5b92915050565b5f5f5f5f5f5f6101a08789031215610e7d57610e7c610a8c565b5b5f87013567ffffffffffffffff811115610e9a57610e99610a90565b5b610ea689828a01610de6565b965050602087013567ffffffffffffffff811115610ec757610ec6610a90565b5b610ed389828a01610de6565b9550506040610ee489828a01610e29565b9450506060610ef589828a01610ab3565b9350506080610f0689828a01610ab3565b92505060a0610f1789828a01610e41565b9150509295509295509295565b5f60208284031215610f3957610f38610a8c565b5b5f82013567ffffffffffffffff811115610f5657610f55610a90565b5b610f6284828501610de6565b91505092915050565b5f5f60408385031215610f8157610f80610a8c565b5b5f610f8e85828601610b6b565b9250506020610f9f85828601610ab3565b9150509250929050565b7f4e487b71000000000000000000000000000000000000000000000000000000005f52602260045260245ffd5b5f6002820490506001821680610fed57607f821691505b60208210810361100057610fff610fa9565b5b50919050565b7f5573657220697320616c726561647920726567697374657265642e00000000005f82015250565b5f61103a601b83610bc3565b915061104582611006565b602082019050919050565b5f6020820190508181035f8301526110678161102e565b9050919050565b7f5468697320576f726c642049442068617320616c7265616479206265656e20755f8201527f7365642e00000000000000000000000000000000000000000000000000000000602082015250565b5f6110c8602483610bc3565b91506110d38261106e565b604082019050919050565b5f6020820190508181035f8301526110f5816110bc565b9050919050565b5f8160601b9050919050565b5f611112826110fc565b9050919050565b5f61112382611108565b9050919050565b61113b61113682610b44565b611119565b82525050565b5f61114c828461112a565b60148201915081905092915050565b5f81905092915050565b7f68756d616e776f726b2d70726f746f636f6c00000000000000000000000000005f82015250565b5f61119960128361115b565b91506111a482611165565b601282019050919050565b5f6111b98261118d565b9150819050919050565b5f819050919050565b5f819050919050565b5f6111ef6111ea6111e5846111c3565b6111cc565b610a94565b9050919050565b6111ff816111d5565b82525050565b82818337505050565b61121b6101008383611205565b5050565b5f6101a0820190506112335f830189610c29565b61124060208301886111f6565b61124d6040830187610c29565b61125a6060830186610c29565b6112676080830185610c29565b61127460a083018461120e565b979650505050505050565b5f819050815f5260205f209050919050565b5f6020601f8301049050919050565b5f82821b905092915050565b5f600883026112db7fffffffffffffffffffffffffffffffffffffffffffffffffffffffffffffffff826112a0565b6112e586836112a0565b95508019841693508086168417925050509392505050565b5f61131761131261130d84610a94565b6111cc565b610a94565b9050919050565b5f819050919050565b611330836112fd565b61134461133c8261131e565b8484546112ac565b825550505050565b5f5f905090565b61135b61134c565b611366818484611327565b505050565b5b818110156113895761137e5f82611353565b60018101905061136c565b5050565b601f8211156113ce5761139f8161127f565b6113a884611291565b810160208510156113b7578190505b6113cb6113c385611291565b83018261136b565b50505b505050565b5f82821c905092915050565b5f6113ee5f19846008026113d3565b1980831691505092915050565b5f61140683836113df565b9150826002028217905092915050565b61141f82610bb9565b67ffffffffffffffff81111561143857611437610cef565b5b6114428254610fd6565b61144d82828561138d565b5f60209050601f83116001811461147e575f841561146c578287015190505b61147685826113fb565b8655506114dd565b601f19841661148c8661127f565b5f5b828110156114b35784890151825560018201915060208501945060208101905061148e565b868310156114d057848901516114cc601f8916826113df565b8355505b6001600288020188555050505b505050505050565b5f6060820190506114f85f830186610afd565b818103602083015261150a8185610bf1565b90506115196040830184610c29565b949350505050565b7f55736572206973206e6f7420726567697374657265642e0000000000000000005f82015250565b5f611555601783610bc3565b915061156082611521565b602082019050919050565b5f6020820190508181035f83015261158281611549565b9050919050565b5f6020820190508181035f8301526115a18184610bf1565b905092915050565b7f55736572206e6f7420666f756e642e00000000000000000000000000000000005f82015250565b5f6115dd600f83610bc3565b91506115e8826115a9565b602082019050919050565b5f6020820190508181035f83015261160a816115d1565b9050919050565b7f4e487b71000000000000000000000000000000000000000000000000000000005f52601160045260245ffd5b5f61164882610a94565b91507fffffffffffffffffffffffffffffffffffffffffffffffffffffffffffffffff820361167a57611679611611565b5b600182019050919050565b5f6020820190506116985f830184610c29565b9291505056fea26469706673582212201e520c6795532438c156458042349d34ea256737b2dda1e2aca512bf49cb215e64736f6c634300081e0033",
			"opcodes": "PUSH1 0xA0 PUSH1 0x40 MSTORE CALLVALUE DUP1 ISZERO PUSH2 0xF JUMPI PUSH0 PUSH0 REVERT JUMPDEST POP PUSH1 0x40 MLOAD PUSH2 0x17E0 CODESIZE SUB DUP1 PUSH2 0x17E0 DUP4 CODECOPY DUP2 DUP2 ADD PUSH1 0x40 MSTORE DUP2 ADD SWAP1 PUSH2 0x31 SWAP2 SWAP1 PUSH2 0xC9 JUMP JUMPDEST DUP1 PUSH20 0xFFFFFFFFFFFFFFFFFFFFFFFFFFFFFFFFFFFFFFFF AND PUSH1 0x80 DUP2 PUSH20 0xFFFFFFFFFFFFFFFFFFFFFFFFFFFFFFFFFFFFFFFF AND DUP2 MSTORE POP POP POP PUSH2 0xF4 JUMP JUMPDEST PUSH0 PUSH0 REVERT JUMPDEST PUSH0 PUSH20 0xFFFFFFFFFFFFFFFFFFFFFFFFFFFFFFFFFFFFFFFF DUP3 AND SWAP1 POP SWAP2 SWAP1 POP JUMP JUMPDEST PUSH0 PUSH2 0x98 DUP3 PUSH2 0x6F JUMP JUMPDEST SWAP1 POP SWAP2 SWAP1 POP JUMP JUMPDEST PUSH2 0xA8 DUP2 PUSH2 0x8E JUMP JUMPDEST DUP2 EQ PUSH2 0xB2 JUMPI PUSH0 PUSH0 REVERT JUMPDEST POP JUMP JUMPDEST PUSH0 DUP2 MLOAD SWAP1 POP PUSH2 0xC3 DUP2 PUSH2 0x9F JUMP JUMPDEST SWAP3 SWAP2 POP POP JUMP JUMPDEST PUSH0 PUSH1 0x20 DUP3 DUP5 SUB SLT ISZERO PUSH2 0xDE JUMPI PUSH2 0xDD PUSH2 0x6B JUMP JUMPDEST JUMPDEST PUSH0 PUSH2 0xEB DUP5 DUP3 DUP6 ADD PUSH2 0xB5 JUMP JUMPDEST SWAP2 POP POP SWAP3 SWAP2 POP POP JUMP JUMPDEST PUSH1 0x80 MLOAD PUSH2 0x16D4 PUSH2 0x10C PUSH0 CODECOPY PUSH0 PUSH2 0x4E4 ADD MSTORE PUSH2 0x16D4 PUSH0 RETURN INVALID PUSH1 0x80 PUSH1 0x40 MSTORE CALLVALUE DUP1 ISZERO PUSH2 0xF JUMPI PUSH0 PUSH0 REVERT JUMPDEST POP PUSH1 0x4 CALLDATASIZE LT PUSH2 0x60 JUMPI PUSH0 CALLDATALOAD PUSH1 0xE0 SHR DUP1 PUSH4 0x1F79A1E9 EQ PUSH2 0x64 JUMPI DUP1 PUSH4 0xA87430BA EQ PUSH2 0x94 JUMPI DUP1 PUSH4 0xC3C5A547 EQ PUSH2 0xCD JUMPI DUP1 PUSH4 0xDB5FAA4F EQ PUSH2 0xFD JUMPI DUP1 PUSH4 0xF5BCFDB2 EQ PUSH2 0x119 JUMPI DUP1 PUSH4 0xF5C91A08 EQ PUSH2 0x135 JUMPI JUMPDEST PUSH0 PUSH0 REVERT JUMPDEST PUSH2 0x7E PUSH1 0x4 DUP1 CALLDATASIZE SUB DUP2 ADD SWAP1 PUSH2 0x79 SWAP2 SWAP1 PUSH2 0xAC7 JUMP JUMPDEST PUSH2 0x151 JUMP JUMPDEST PUSH1 0x40 MLOAD PUSH2 0x8B SWAP2 SWAP1 PUSH2 0xB0C JUMP JUMPDEST PUSH1 0x40 MLOAD DUP1 SWAP2 SUB SWAP1 RETURN JUMPDEST PUSH2 0xAE PUSH1 0x4 DUP1 CALLDATASIZE SUB DUP2 ADD SWAP1 PUSH2 0xA9 SWAP2 SWAP1 PUSH2 0xB7F JUMP JUMPDEST PUSH2 0x16E JUMP JUMPDEST PUSH1 0x40 MLOAD PUSH2 0xC4 SWAP11 SWAP10 SWAP9 SWAP8 SWAP7 SWAP6 SWAP5 SWAP4 SWAP3 SWAP2 SWAP1 PUSH2 0xC38 JUMP JUMPDEST PUSH1 0x40 MLOAD DUP1 SWAP2 SUB SWAP1 RETURN JUMPDEST PUSH2 0xE7 PUSH1 0x4 DUP1 CALLDATASIZE SUB DUP2 ADD SWAP1 PUSH2 0xE2 SWAP2 SWAP1 PUSH2 0xB7F JUMP JUMPDEST PUSH2 0x387 JUMP JUMPDEST PUSH1 0x40 MLOAD PUSH2 0xF4 SWAP2 SWAP1 PUSH2 0xB0C JUMP JUMPDEST PUSH1 0x40 MLOAD DUP1 SWAP2 SUB SWAP1 RETURN JUMPDEST PUSH2 0x117 PUSH1 0x4 DUP1 CALLDATASIZE SUB DUP2 ADD SWAP1 PUSH2 0x112 SWAP2 SWAP1 PUSH2 0xE62 JUMP JUMPDEST PUSH2 0x3A4 JUMP JUMPDEST STOP JUMPDEST PUSH2 0x133 PUSH1 0x4 DUP1 CALLDATASIZE SUB DUP2 ADD SWAP1 PUSH2 0x12E SWAP2 SWAP1 PUSH2 0xF24 JUMP JUMPDEST PUSH2 0x7E9 JUMP JUMPDEST STOP JUMPDEST PUSH2 0x14F PUSH1 0x4 DUP1 CALLDATASIZE SUB DUP2 ADD SWAP1 PUSH2 0x14A SWAP2 SWAP1 PUSH2 0xF6B JUMP JUMPDEST PUSH2 0x910 JUMP JUMPDEST STOP JUMPDEST PUSH1 0x1 PUSH1 0x20 MSTORE DUP1 PUSH0 MSTORE PUSH1 0x40 PUSH0 KECCAK256 PUSH0 SWAP2 POP SLOAD SWAP1 PUSH2 0x100 EXP SWAP1 DIV PUSH1 0xFF AND DUP2 JUMP JUMPDEST PUSH0 PUSH1 0x20 MSTORE DUP1 PUSH0 MSTORE PUSH1 0x40 PUSH0 KECCAK256 PUSH0 SWAP2 POP SWAP1 POP DUP1 PUSH0 ADD PUSH0 SWAP1 SLOAD SWAP1 PUSH2 0x100 EXP SWAP1 DIV PUSH20 0xFFFFFFFFFFFFFFFFFFFFFFFFFFFFFFFFFFFFFFFF AND SWAP1 DUP1 PUSH1 0x1 ADD DUP1 SLOAD PUSH2 0x1B1 SWAP1 PUSH2 0xFD6 JUMP JUMPDEST DUP1 PUSH1 0x1F ADD PUSH1 0x20 DUP1 SWAP2 DIV MUL PUSH1 0x20 ADD PUSH1 0x40 MLOAD SWAP1 DUP2 ADD PUSH1 0x40 MSTORE DUP1 SWAP3 SWAP2 SWAP1 DUP2 DUP2 MSTORE PUSH1 0x20 ADD DUP3 DUP1 SLOAD PUSH2 0x1DD SWAP1 PUSH2 0xFD6 JUMP JUMPDEST DUP1 ISZERO PUSH2 0x228 JUMPI DUP1 PUSH1 0x1F LT PUSH2 0x1FF JUMPI PUSH2 0x100 DUP1 DUP4 SLOAD DIV MUL DUP4 MSTORE SWAP2 PUSH1 0x20 ADD SWAP2 PUSH2 0x228 JUMP JUMPDEST DUP3 ADD SWAP2 SWAP1 PUSH0 MSTORE PUSH1 0x20 PUSH0 KECCAK256 SWAP1 JUMPDEST DUP2 SLOAD DUP2 MSTORE SWAP1 PUSH1 0x1 ADD SWAP1 PUSH1 0x20 ADD DUP1 DUP4 GT PUSH2 0x20B JUMPI DUP3 SWAP1 SUB PUSH1 0x1F AND DUP3 ADD SWAP2 JUMPDEST POP POP POP POP POP SWAP1 DUP1 PUSH1 0x2 ADD DUP1 SLOAD PUSH2 0x23D SWAP1 PUSH2 0xFD6 JUMP JUMPDEST DUP1 PUSH1 0x1F ADD PUSH1 0x20 DUP1 SWAP2 DIV MUL PUSH1 0x20 ADD PUSH1 0x40 MLOAD SWAP1 DUP2 ADD PUSH1 0x40 MSTORE DUP1 SWAP3 SWAP2 SWAP1 DUP2 DUP2 MSTORE PUSH1 0x20 ADD DUP3 DUP1 SLOAD PUSH2 0x269 SWAP1 PUSH2 0xFD6 JUMP JUMPDEST DUP1 ISZERO PUSH2 0x2B4 JUMPI DUP1 PUSH1 0x1F LT PUSH2 0x28B JUMPI PUSH2 0x100 DUP1 DUP4 SLOAD DIV MUL DUP4 MSTORE SWAP2 PUSH1 0x20 ADD SWAP2 PUSH2 0x2B4 JUMP JUMPDEST DUP3 ADD SWAP2 SWAP1 PUSH0 MSTORE PUSH1 0x20 PUSH0 KECCAK256 SWAP1 JUMPDEST DUP2 SLOAD DUP2 MSTORE SWAP1 PUSH1 0x1 ADD SWAP1 PUSH1 0x20 ADD DUP1 DUP4 GT PUSH2 0x297 JUMPI DUP3 SWAP1 SUB PUSH1 0x1F AND DUP3 ADD SWAP2 JUMPDEST POP POP POP POP POP SWAP1 DUP1 PUSH1 0x3 ADD DUP1 SLOAD PUSH2 0x2C9 SWAP1 PUSH2 0xFD6 JUMP JUMPDEST DUP1 PUSH1 0x1F ADD PUSH1 0x20 DUP1 SWAP2 DIV MUL PUSH1 0x20 ADD PUSH1 0x40 MLOAD SWAP1 DUP2 ADD PUSH1 0x40 MSTORE DUP1 SWAP3 SWAP2 SWAP1 DUP2 DUP2 MSTORE PUSH1 0x20 ADD DUP3 DUP1 SLOAD PUSH2 0x2F5 SWAP1 PUSH2 0xFD6 JUMP JUMPDEST DUP1 ISZERO PUSH2 0x340 JUMPI DUP1 PUSH1 0x1F LT PUSH2 0x317 JUMPI PUSH2 0x100 DUP1 DUP4 SLOAD DIV MUL DUP4 MSTORE SWAP2 PUSH1 0x20 ADD SWAP2 PUSH2 0x340 JUMP JUMPDEST DUP3 ADD SWAP2 SWAP1 PUSH0 MSTORE PUSH1 0x20 PUSH0 KECCAK256 SWAP1 JUMPDEST DUP2 SLOAD DUP2 MSTORE SWAP1 PUSH1 0x1 ADD SWAP1 PUSH1 0x20 ADD DUP1 DUP4 GT PUSH2 0x323 JUMPI DUP3 SWAP1 SUB PUSH1 0x1F AND DUP3 ADD SWAP2 JUMPDEST POP POP POP POP POP SWAP1 DUP1 PUSH1 0x4 ADD PUSH0 SWAP1 SLOAD SWAP1 PUSH2 0x100 EXP SWAP1 DIV PUSH1 0xFF AND SWAP1 DUP1 PUSH1 0x4 ADD PUSH1 0x1 SWAP1 SLOAD SWAP1 PUSH2 0x100 EXP SWAP1 DIV PUSH1 0xFF AND SWAP1 DUP1 PUSH1 0x5 ADD SLOAD SWAP1 DUP1 PUSH1 0x6 ADD SLOAD SWAP1 DUP1 PUSH1 0x7 ADD SLOAD SWAP1 DUP1 PUSH1 0x8 ADD SLOAD SWAP1 POP DUP11 JUMP JUMPDEST PUSH1 0x2 PUSH1 0x20 MSTORE DUP1 PUSH0 MSTORE PUSH1 0x40 PUSH0 KECCAK256 PUSH0 SWAP2 POP SLOAD SWAP1 PUSH2 0x100 EXP SWAP1 DIV PUSH1 0xFF AND DUP2 JUMP JUMPDEST PUSH1 0x2 PUSH0 CALLER PUSH20 0xFFFFFFFFFFFFFFFFFFFFFFFFFFFFFFFFFFFFFFFF AND PUSH20 0xFFFFFFFFFFFFFFFFFFFFFFFFFFFFFFFFFFFFFFFF AND DUP2 MSTORE PUSH1 0x20 ADD SWAP1 DUP2 MSTORE PUSH1 0x20 ADD PUSH0 KECCAK256 PUSH0 SWAP1 SLOAD SWAP1 PUSH2 0x100 EXP SWAP1 DIV PUSH1 0xFF AND ISZERO PUSH2 0x42E JUMPI PUSH1 0x40 MLOAD PUSH32 0x8C379A000000000000000000000000000000000000000000000000000000000 DUP2 MSTORE PUSH1 0x4 ADD PUSH2 0x425 SWAP1 PUSH2 0x1050 JUMP JUMPDEST PUSH1 0x40 MLOAD DUP1 SWAP2 SUB SWAP1 REVERT JUMPDEST PUSH1 0x1 PUSH0 DUP4 DUP2 MSTORE PUSH1 0x20 ADD SWAP1 DUP2 MSTORE PUSH1 0x20 ADD PUSH0 KECCAK256 PUSH0 SWAP1 SLOAD SWAP1 PUSH2 0x100 EXP SWAP1 DIV PUSH1 0xFF AND ISZERO PUSH2 0x48C JUMPI PUSH1 0x40 MLOAD PUSH32 0x8C379A000000000000000000000000000000000000000000000000000000000 DUP2 MSTORE PUSH1 0x4 ADD PUSH2 0x483 SWAP1 PUSH2 0x10DE JUMP JUMPDEST PUSH1 0x40 MLOAD DUP1 SWAP2 SUB SWAP1 REVERT JUMPDEST PUSH0 CALLER PUSH1 0x40 MLOAD PUSH1 0x20 ADD PUSH2 0x49E SWAP2 SWAP1 PUSH2 0x1141 JUMP JUMPDEST PUSH1 0x40 MLOAD PUSH1 0x20 DUP2 DUP4 SUB SUB DUP2 MSTORE SWAP1 PUSH1 0x40 MSTORE DUP1 MLOAD SWAP1 PUSH1 0x20 ADD KECCAK256 PUSH0 SHR SWAP1 POP PUSH0 PUSH1 0x40 MLOAD PUSH1 0x20 ADD PUSH2 0x4C8 SWAP1 PUSH2 0x11AF JUMP JUMPDEST PUSH1 0x40 MLOAD PUSH1 0x20 DUP2 DUP4 SUB SUB DUP2 MSTORE SWAP1 PUSH1 0x40 MSTORE DUP1 MLOAD SWAP1 PUSH1 0x20 ADD KECCAK256 PUSH0 SHR SWAP1 POP PUSH32 0x0 PUSH20 0xFFFFFFFFFFFFFFFFFFFFFFFFFFFFFFFFFFFFFFFF AND PUSH4 0x3BC778E3 DUP7 PUSH1 0x1 DUP6 DUP9 DUP7 DUP10 PUSH1 0x40 MLOAD DUP8 PUSH4 0xFFFFFFFF AND PUSH1 0xE0 SHL DUP2 MSTORE PUSH1 0x4 ADD PUSH2 0x546 SWAP7 SWAP6 SWAP5 SWAP4 SWAP3 SWAP2 SWAP1 PUSH2 0x121F JUMP JUMPDEST PUSH0 PUSH1 0x40 MLOAD DUP1 DUP4 SUB DUP2 DUP7 DUP1 EXTCODESIZE ISZERO DUP1 ISZERO PUSH2 0x55C JUMPI PUSH0 PUSH0 REVERT JUMPDEST POP GAS STATICCALL ISZERO DUP1 ISZERO PUSH2 0x56E JUMPI RETURNDATASIZE PUSH0 PUSH0 RETURNDATACOPY RETURNDATASIZE PUSH0 REVERT JUMPDEST POP POP POP POP PUSH1 0x1 DUP1 PUSH0 DUP7 DUP2 MSTORE PUSH1 0x20 ADD SWAP1 DUP2 MSTORE PUSH1 0x20 ADD PUSH0 KECCAK256 PUSH0 PUSH2 0x100 EXP DUP2 SLOAD DUP2 PUSH1 0xFF MUL NOT AND SWAP1 DUP4 ISZERO ISZERO MUL OR SWAP1 SSTORE POP PUSH1 0x40 MLOAD DUP1 PUSH2 0x140 ADD PUSH1 0x40 MSTORE DUP1 CALLER PUSH20 0xFFFFFFFFFFFFFFFFFFFFFFFFFFFFFFFFFFFFFFFF AND DUP2 MSTORE PUSH1 0x20 ADD DUP10 DUP2 MSTORE PUSH1 0x20 ADD DUP9 DUP2 MSTORE PUSH1 0x20 ADD PUSH1 0x40 MLOAD DUP1 PUSH1 0x20 ADD PUSH1 0x40 MSTORE DUP1 PUSH0 DUP2 MSTORE POP DUP2 MSTORE PUSH1 0x20 ADD PUSH1 0x1 ISZERO ISZERO DUP2 MSTORE PUSH1 0x20 ADD DUP8 ISZERO ISZERO DUP2 MSTORE PUSH1 0x20 ADD PUSH1 0x64 DUP2 MSTORE PUSH1 0x20 ADD TIMESTAMP DUP2 MSTORE PUSH1 0x20 ADD PUSH0 DUP2 MSTORE PUSH1 0x20 ADD CHAINID DUP2 MSTORE POP PUSH0 PUSH0 CALLER PUSH20 0xFFFFFFFFFFFFFFFFFFFFFFFFFFFFFFFFFFFFFFFF AND PUSH20 0xFFFFFFFFFFFFFFFFFFFFFFFFFFFFFFFFFFFFFFFF AND DUP2 MSTORE PUSH1 0x20 ADD SWAP1 DUP2 MSTORE PUSH1 0x20 ADD PUSH0 KECCAK256 PUSH0 DUP3 ADD MLOAD DUP2 PUSH0 ADD PUSH0 PUSH2 0x100 EXP DUP2 SLOAD DUP2 PUSH20 0xFFFFFFFFFFFFFFFFFFFFFFFFFFFFFFFFFFFFFFFF MUL NOT AND SWAP1 DUP4 PUSH20 0xFFFFFFFFFFFFFFFFFFFFFFFFFFFFFFFFFFFFFFFF AND MUL OR SWAP1 SSTORE POP PUSH1 0x20 DUP3 ADD MLOAD DUP2 PUSH1 0x1 ADD SWAP1 DUP2 PUSH2 0x69F SWAP2 SWAP1 PUSH2 0x1416 JUMP JUMPDEST POP PUSH1 0x40 DUP3 ADD MLOAD DUP2 PUSH1 0x2 ADD SWAP1 DUP2 PUSH2 0x6B5 SWAP2 SWAP1 PUSH2 0x1416 JUMP JUMPDEST POP PUSH1 0x60 DUP3 ADD MLOAD DUP2 PUSH1 0x3 ADD SWAP1 DUP2 PUSH2 0x6CB SWAP2 SWAP1 PUSH2 0x1416 JUMP JUMPDEST POP PUSH1 0x80 DUP3 ADD MLOAD DUP2 PUSH1 0x4 ADD PUSH0 PUSH2 0x100 EXP DUP2 SLOAD DUP2 PUSH1 0xFF MUL NOT AND SWAP1 DUP4 ISZERO ISZERO MUL OR SWAP1 SSTORE POP PUSH1 0xA0 DUP3 ADD MLOAD DUP2 PUSH1 0x4 ADD PUSH1 0x1 PUSH2 0x100 EXP DUP2 SLOAD DUP2 PUSH1 0xFF MUL NOT AND SWAP1 DUP4 ISZERO ISZERO MUL OR SWAP1 SSTORE POP PUSH1 0xC0 DUP3 ADD MLOAD DUP2 PUSH1 0x5 ADD SSTORE PUSH1 0xE0 DUP3 ADD MLOAD DUP2 PUSH1 0x6 ADD SSTORE PUSH2 0x100 DUP3 ADD MLOAD DUP2 PUSH1 0x7 ADD SSTORE PUSH2 0x120 DUP3 ADD MLOAD DUP2 PUSH1 0x8 ADD SSTORE SWAP1 POP POP PUSH1 0x1 PUSH1 0x2 PUSH0 CALLER PUSH20 0xFFFFFFFFFFFFFFFFFFFFFFFFFFFFFFFFFFFFFFFF AND PUSH20 0xFFFFFFFFFFFFFFFFFFFFFFFFFFFFFFFFFFFFFFFF AND DUP2 MSTORE PUSH1 0x20 ADD SWAP1 DUP2 MSTORE PUSH1 0x20 ADD PUSH0 KECCAK256 PUSH0 PUSH2 0x100 EXP DUP2 SLOAD DUP2 PUSH1 0xFF MUL NOT AND SWAP1 DUP4 ISZERO ISZERO MUL OR SWAP1 SSTORE POP CALLER PUSH20 0xFFFFFFFFFFFFFFFFFFFFFFFFFFFFFFFFFFFFFFFF AND PUSH32 0x520CA5FAE6A0F94DFE03BD8F07ABECF9EAF46CD82B187FA12B1BC2E981B76A65 DUP8 DUP11 CHAINID PUSH1 0x40 MLOAD PUSH2 0x7D7 SWAP4 SWAP3 SWAP2 SWAP1 PUSH2 0x14E5 JUMP JUMPDEST PUSH1 0x40 MLOAD DUP1 SWAP2 SUB SWAP1 LOG2 POP POP POP POP POP POP POP POP JUMP JUMPDEST PUSH1 0x2 PUSH0 CALLER PUSH20 0xFFFFFFFFFFFFFFFFFFFFFFFFFFFFFFFFFFFFFFFF AND PUSH20 0xFFFFFFFFFFFFFFFFFFFFFFFFFFFFFFFFFFFFFFFF AND DUP2 MSTORE PUSH1 0x20 ADD SWAP1 DUP2 MSTORE PUSH1 0x20 ADD PUSH0 KECCAK256 PUSH0 SWAP1 SLOAD SWAP1 PUSH2 0x100 EXP SWAP1 DIV PUSH1 0xFF AND PUSH2 0x872 JUMPI PUSH1 0x40 MLOAD PUSH32 0x8C379A000000000000000000000000000000000000000000000000000000000 DUP2 MSTORE PUSH1 0x4 ADD PUSH2 0x869 SWAP1 PUSH2 0x156B JUMP JUMPDEST PUSH1 0x40 MLOAD DUP1 SWAP2 SUB SWAP1 REVERT JUMPDEST DUP1 PUSH0 PUSH0 CALLER PUSH20 0xFFFFFFFFFFFFFFFFFFFFFFFFFFFFFFFFFFFFFFFF AND PUSH20 0xFFFFFFFFFFFFFFFFFFFFFFFFFFFFFFFFFFFFFFFF AND DUP2 MSTORE PUSH1 0x20 ADD SWAP1 DUP2 MSTORE PUSH1 0x20 ADD PUSH0 KECCAK256 PUSH1 0x3 ADD SWAP1 DUP2 PUSH2 0x8BE SWAP2 SWAP1 PUSH2 0x1416 JUMP JUMPDEST POP CALLER PUSH20 0xFFFFFFFFFFFFFFFFFFFFFFFFFFFFFFFFFFFFFFFF AND PUSH32 0x4B5E39575E1A46F75B7284892D6C0E107EA9257D002F0BBBC06EFA02A87559B8 DUP3 PUSH1 0x40 MLOAD PUSH2 0x905 SWAP2 SWAP1 PUSH2 0x1589 JUMP JUMPDEST PUSH1 0x40 MLOAD DUP1 SWAP2 SUB SWAP1 LOG2 POP JUMP JUMPDEST PUSH1 0x2 PUSH0 DUP4 PUSH20 0xFFFFFFFFFFFFFFFFFFFFFFFFFFFFFFFFFFFFFFFF AND PUSH20 0xFFFFFFFFFFFFFFFFFFFFFFFFFFFFFFFFFFFFFFFF AND DUP2 MSTORE PUSH1 0x20 ADD SWAP1 DUP2 MSTORE PUSH1 0x20 ADD PUSH0 KECCAK256 PUSH0 SWAP1 SLOAD SWAP1 PUSH2 0x100 EXP SWAP1 DIV PUSH1 0xFF AND PUSH2 0x999 JUMPI PUSH1 0x40 MLOAD PUSH32 0x8C379A000000000000000000000000000000000000000000000000000000000 DUP2 MSTORE PUSH1 0x4 ADD PUSH2 0x990 SWAP1 PUSH2 0x15F3 JUMP JUMPDEST PUSH1 0x40 MLOAD DUP1 SWAP2 SUB SWAP1 REVERT JUMPDEST DUP1 PUSH0 PUSH0 DUP5 PUSH20 0xFFFFFFFFFFFFFFFFFFFFFFFFFFFFFFFFFFFFFFFF AND PUSH20 0xFFFFFFFFFFFFFFFFFFFFFFFFFFFFFFFFFFFFFFFF AND DUP2 MSTORE PUSH1 0x20 ADD SWAP1 DUP2 MSTORE PUSH1 0x20 ADD PUSH0 KECCAK256 PUSH1 0x5 ADD DUP2 SWAP1 SSTORE POP PUSH0 PUSH0 DUP4 PUSH20 0xFFFFFFFFFFFFFFFFFFFFFFFFFFFFFFFFFFFFFFFF AND PUSH20 0xFFFFFFFFFFFFFFFFFFFFFFFFFFFFFFFFFFFFFFFF AND DUP2 MSTORE PUSH1 0x20 ADD SWAP1 DUP2 MSTORE PUSH1 0x20 ADD PUSH0 KECCAK256 PUSH1 0x7 ADD PUSH0 DUP2 SLOAD DUP1 SWAP3 SWAP2 SWAP1 PUSH2 0xA2C SWAP1 PUSH2 0x163E JUMP JUMPDEST SWAP2 SWAP1 POP SSTORE POP DUP2 PUSH20 0xFFFFFFFFFFFFFFFFFFFFFFFFFFFFFFFFFFFFFFFF AND PUSH32 0xFC577563F1B9A0461E24ABEF1E1FCC0D33D3D881F20B5DF6DDA59DE4AAE2C821 DUP3 PUSH1 0x40 MLOAD PUSH2 0xA77 SWAP2 SWAP1 PUSH2 0x1685 JUMP JUMPDEST PUSH1 0x40 MLOAD DUP1 SWAP2 SUB SWAP1 LOG2 POP POP JUMP JUMPDEST PUSH0 PUSH1 0x40 MLOAD SWAP1 POP SWAP1 JUMP JUMPDEST PUSH0 PUSH0 REVERT JUMPDEST PUSH0 PUSH0 REVERT JUMPDEST PUSH0 DUP2 SWAP1 POP SWAP2 SWAP1 POP JUMP JUMPDEST PUSH2 0xAA6 DUP2 PUSH2 0xA94 JUMP JUMPDEST DUP2 EQ PUSH2 0xAB0 JUMPI PUSH0 PUSH0 REVERT JUMPDEST POP JUMP JUMPDEST PUSH0 DUP2 CALLDATALOAD SWAP1 POP PUSH2 0xAC1 DUP2 PUSH2 0xA9D JUMP JUMPDEST SWAP3 SWAP2 POP POP JUMP JUMPDEST PUSH0 PUSH1 0x20 DUP3 DUP5 SUB SLT ISZERO PUSH2 0xADC JUMPI PUSH2 0xADB PUSH2 0xA8C JUMP JUMPDEST JUMPDEST PUSH0 PUSH2 0xAE9 DUP5 DUP3 DUP6 ADD PUSH2 0xAB3 JUMP JUMPDEST SWAP2 POP POP SWAP3 SWAP2 POP POP JUMP JUMPDEST PUSH0 DUP2 ISZERO ISZERO SWAP1 POP SWAP2 SWAP1 POP JUMP JUMPDEST PUSH2 0xB06 DUP2 PUSH2 0xAF2 JUMP JUMPDEST DUP3 MSTORE POP POP JUMP JUMPDEST PUSH0 PUSH1 0x20 DUP3 ADD SWAP1 POP PUSH2 0xB1F PUSH0 DUP4 ADD DUP5 PUSH2 0xAFD JUMP JUMPDEST SWAP3 SWAP2 POP POP JUMP JUMPDEST PUSH0 PUSH20 0xFFFFFFFFFFFFFFFFFFFFFFFFFFFFFFFFFFFFFFFF DUP3 AND SWAP1 POP SWAP2 SWAP1 POP JUMP JUMPDEST PUSH0 PUSH2 0xB4E DUP3 PUSH2 0xB25 JUMP JUMPDEST SWAP1 POP SWAP2 SWAP1 POP JUMP JUMPDEST PUSH2 0xB5E DUP2 PUSH2 0xB44 JUMP JUMPDEST DUP2 EQ PUSH2 0xB68 JUMPI PUSH0 PUSH0 REVERT JUMPDEST POP JUMP JUMPDEST PUSH0 DUP2 CALLDATALOAD SWAP1 POP PUSH2 0xB79 DUP2 PUSH2 0xB55 JUMP JUMPDEST SWAP3 SWAP2 POP POP JUMP JUMPDEST PUSH0 PUSH1 0x20 DUP3 DUP5 SUB SLT ISZERO PUSH2 0xB94 JUMPI PUSH2 0xB93 PUSH2 0xA8C JUMP JUMPDEST JUMPDEST PUSH0 PUSH2 0xBA1 DUP5 DUP3 DUP6 ADD PUSH2 0xB6B JUMP JUMPDEST SWAP2 POP POP SWAP3 SWAP2 POP POP JUMP JUMPDEST PUSH2 0xBB3 DUP2 PUSH2 0xB44 JUMP JUMPDEST DUP3 MSTORE POP POP JUMP JUMPDEST PUSH0 DUP2 MLOAD SWAP1 POP SWAP2 SWAP1 POP JUMP JUMPDEST PUSH0 DUP3 DUP3 MSTORE PUSH1 0x20 DUP3 ADD SWAP1 POP SWAP3 SWAP2 POP POP JUMP JUMPDEST DUP3 DUP2 DUP4 MCOPY PUSH0 DUP4 DUP4 ADD MSTORE POP POP POP JUMP JUMPDEST PUSH0 PUSH1 0x1F NOT PUSH1 0x1F DUP4 ADD AND SWAP1 POP SWAP2 SWAP1 POP JUMP JUMPDEST PUSH0 PUSH2 0xBFB DUP3 PUSH2 0xBB9 JUMP JUMPDEST PUSH2 0xC05 DUP2 DUP6 PUSH2 0xBC3 JUMP JUMPDEST SWAP4 POP PUSH2 0xC15 DUP2 DUP6 PUSH1 0x20 DUP7 ADD PUSH2 0xBD3 JUMP JUMPDEST PUSH2 0xC1E DUP2 PUSH2 0xBE1 JUMP JUMPDEST DUP5 ADD SWAP2 POP POP SWAP3 SWAP2 POP POP JUMP JUMPDEST PUSH2 0xC32 DUP2 PUSH2 0xA94 JUMP JUMPDEST DUP3 MSTORE POP POP JUMP JUMPDEST PUSH0 PUSH2 0x140 DUP3 ADD SWAP1 POP PUSH2 0xC4C PUSH0 DUP4 ADD DUP14 PUSH2 0xBAA JUMP JUMPDEST DUP2 DUP2 SUB PUSH1 0x20 DUP4 ADD MSTORE PUSH2 0xC5E DUP2 DUP13 PUSH2 0xBF1 JUMP JUMPDEST SWAP1 POP DUP2 DUP2 SUB PUSH1 0x40 DUP4 ADD MSTORE PUSH2 0xC72 DUP2 DUP12 PUSH2 0xBF1 JUMP JUMPDEST SWAP1 POP DUP2 DUP2 SUB PUSH1 0x60 DUP4 ADD MSTORE PUSH2 0xC86 DUP2 DUP11 PUSH2 0xBF1 JUMP JUMPDEST SWAP1 POP PUSH2 0xC95 PUSH1 0x80 DUP4 ADD DUP10 PUSH2 0xAFD JUMP JUMPDEST PUSH2 0xCA2 PUSH1 0xA0 DUP4 ADD DUP9 PUSH2 0xAFD JUMP JUMPDEST PUSH2 0xCAF PUSH1 0xC0 DUP4 ADD DUP8 PUSH2 0xC29 JUMP JUMPDEST PUSH2 0xCBC PUSH1 0xE0 DUP4 ADD DUP7 PUSH2 0xC29 JUMP JUMPDEST PUSH2 0xCCA PUSH2 0x100 DUP4 ADD DUP6 PUSH2 0xC29 JUMP JUMPDEST PUSH2 0xCD8 PUSH2 0x120 DUP4 ADD DUP5 PUSH2 0xC29 JUMP JUMPDEST SWAP12 SWAP11 POP POP POP POP POP POP POP POP POP POP POP JUMP JUMPDEST PUSH0 PUSH0 REVERT JUMPDEST PUSH0 PUSH0 REVERT JUMPDEST PUSH32 0x4E487B7100000000000000000000000000000000000000000000000000000000 PUSH0 MSTORE PUSH1 0x41 PUSH1 0x4 MSTORE PUSH1 0x24 PUSH0 REVERT JUMPDEST PUSH2 0xD25 DUP3 PUSH2 0xBE1 JUMP JUMPDEST DUP2 ADD DUP2 DUP2 LT PUSH8 0xFFFFFFFFFFFFFFFF DUP3 GT OR ISZERO PUSH2 0xD44 JUMPI PUSH2 0xD43 PUSH2 0xCEF JUMP JUMPDEST JUMPDEST DUP1 PUSH1 0x40 MSTORE POP POP POP JUMP JUMPDEST PUSH0 PUSH2 0xD56 PUSH2 0xA83 JUMP JUMPDEST SWAP1 POP PUSH2 0xD62 DUP3 DUP3 PUSH2 0xD1C JUMP JUMPDEST SWAP2 SWAP1 POP JUMP JUMPDEST PUSH0 PUSH8 0xFFFFFFFFFFFFFFFF DUP3 GT ISZERO PUSH2 0xD81 JUMPI PUSH2 0xD80 PUSH2 0xCEF JUMP JUMPDEST JUMPDEST PUSH2 0xD8A DUP3 PUSH2 0xBE1 JUMP JUMPDEST SWAP1 POP PUSH1 0x20 DUP2 ADD SWAP1 POP SWAP2 SWAP1 POP JUMP JUMPDEST DUP3 DUP2 DUP4 CALLDATACOPY PUSH0 DUP4 DUP4 ADD MSTORE POP POP POP JUMP JUMPDEST PUSH0 PUSH2 0xDB7 PUSH2 0xDB2 DUP5 PUSH2 0xD67 JUMP JUMPDEST PUSH2 0xD4D JUMP JUMPDEST SWAP1 POP DUP3 DUP2 MSTORE PUSH1 0x20 DUP2 ADD DUP5 DUP5 DUP5 ADD GT ISZERO PUSH2 0xDD3 JUMPI PUSH2 0xDD2 PUSH2 0xCEB JUMP JUMPDEST JUMPDEST PUSH2 0xDDE DUP5 DUP3 DUP6 PUSH2 0xD97 JUMP JUMPDEST POP SWAP4 SWAP3 POP POP POP JUMP JUMPDEST PUSH0 DUP3 PUSH1 0x1F DUP4 ADD SLT PUSH2 0xDFA JUMPI PUSH2 0xDF9 PUSH2 0xCE7 JUMP JUMPDEST JUMPDEST DUP2 CALLDATALOAD PUSH2 0xE0A DUP5 DUP3 PUSH1 0x20 DUP7 ADD PUSH2 0xDA5 JUMP JUMPDEST SWAP2 POP POP SWAP3 SWAP2 POP POP JUMP JUMPDEST PUSH2 0xE1C DUP2 PUSH2 0xAF2 JUMP JUMPDEST DUP2 EQ PUSH2 0xE26 JUMPI PUSH0 PUSH0 REVERT JUMPDEST POP JUMP JUMPDEST PUSH0 DUP2 CALLDATALOAD SWAP1 POP PUSH2 0xE37 DUP2 PUSH2 0xE13 JUMP JUMPDEST SWAP3 SWAP2 POP POP JUMP JUMPDEST PUSH0 PUSH0 REVERT JUMPDEST PUSH0 DUP2 SWAP1 POP DUP3 PUSH1 0x20 PUSH1 0x8 MUL DUP3 ADD GT ISZERO PUSH2 0xE5C JUMPI PUSH2 0xE5B PUSH2 0xE3D JUMP JUMPDEST JUMPDEST SWAP3 SWAP2 POP POP JUMP JUMPDEST PUSH0 PUSH0 PUSH0 PUSH0 PUSH0 PUSH0 PUSH2 0x1A0 DUP8 DUP10 SUB SLT ISZERO PUSH2 0xE7D JUMPI PUSH2 0xE7C PUSH2 0xA8C JUMP JUMPDEST JUMPDEST PUSH0 DUP8 ADD CALLDATALOAD PUSH8 0xFFFFFFFFFFFFFFFF DUP2 GT ISZERO PUSH2 0xE9A JUMPI PUSH2 0xE99 PUSH2 0xA90 JUMP JUMPDEST JUMPDEST PUSH2 0xEA6 DUP10 DUP3 DUP11 ADD PUSH2 0xDE6 JUMP JUMPDEST SWAP7 POP POP PUSH1 0x20 DUP8 ADD CALLDATALOAD PUSH8 0xFFFFFFFFFFFFFFFF DUP2 GT ISZERO PUSH2 0xEC7 JUMPI PUSH2 0xEC6 PUSH2 0xA90 JUMP JUMPDEST JUMPDEST PUSH2 0xED3 DUP10 DUP3 DUP11 ADD PUSH2 0xDE6 JUMP JUMPDEST SWAP6 POP POP PUSH1 0x40 PUSH2 0xEE4 DUP10 DUP3 DUP11 ADD PUSH2 0xE29 JUMP JUMPDEST SWAP5 POP POP PUSH1 0x60 PUSH2 0xEF5 DUP10 DUP3 DUP11 ADD PUSH2 0xAB3 JUMP JUMPDEST SWAP4 POP POP PUSH1 0x80 PUSH2 0xF06 DUP10 DUP3 DUP11 ADD PUSH2 0xAB3 JUMP JUMPDEST SWAP3 POP POP PUSH1 0xA0 PUSH2 0xF17 DUP10 DUP3 DUP11 ADD PUSH2 0xE41 JUMP JUMPDEST SWAP2 POP POP SWAP3 SWAP6 POP SWAP3 SWAP6 POP SWAP3 SWAP6 JUMP JUMPDEST PUSH0 PUSH1 0x20 DUP3 DUP5 SUB SLT ISZERO PUSH2 0xF39 JUMPI PUSH2 0xF38 PUSH2 0xA8C JUMP JUMPDEST JUMPDEST PUSH0 DUP3 ADD CALLDATALOAD PUSH8 0xFFFFFFFFFFFFFFFF DUP2 GT ISZERO PUSH2 0xF56 JUMPI PUSH2 0xF55 PUSH2 0xA90 JUMP JUMPDEST JUMPDEST PUSH2 0xF62 DUP5 DUP3 DUP6 ADD PUSH2 0xDE6 JUMP JUMPDEST SWAP2 POP POP SWAP3 SWAP2 POP POP JUMP JUMPDEST PUSH0 PUSH0 PUSH1 0x40 DUP4 DUP6 SUB SLT ISZERO PUSH2 0xF81 JUMPI PUSH2 0xF80 PUSH2 0xA8C JUMP JUMPDEST JUMPDEST PUSH0 PUSH2 0xF8E DUP6 DUP3 DUP7 ADD PUSH2 0xB6B JUMP JUMPDEST SWAP3 POP POP PUSH1 0x20 PUSH2 0xF9F DUP6 DUP3 DUP7 ADD PUSH2 0xAB3 JUMP JUMPDEST SWAP2 POP POP SWAP3 POP SWAP3 SWAP1 POP JUMP JUMPDEST PUSH32 0x4E487B7100000000000000000000000000000000000000000000000000000000 PUSH0 MSTORE PUSH1 0x22 PUSH1 0x4 MSTORE PUSH1 0x24 PUSH0 REVERT JUMPDEST PUSH0 PUSH1 0x2 DUP3 DIV SWAP1 POP PUSH1 0x1 DUP3 AND DUP1 PUSH2 0xFED JUMPI PUSH1 0x7F DUP3 AND SWAP2 POP JUMPDEST PUSH1 0x20 DUP3 LT DUP2 SUB PUSH2 0x1000 JUMPI PUSH2 0xFFF PUSH2 0xFA9 JUMP JUMPDEST JUMPDEST POP SWAP2 SWAP1 POP JUMP JUMPDEST PUSH32 0x5573657220697320616C726561647920726567697374657265642E0000000000 PUSH0 DUP3 ADD MSTORE POP JUMP JUMPDEST PUSH0 PUSH2 0x103A PUSH1 0x1B DUP4 PUSH2 0xBC3 JUMP JUMPDEST SWAP2 POP PUSH2 0x1045 DUP3 PUSH2 0x1006 JUMP JUMPDEST PUSH1 0x20 DUP3 ADD SWAP1 POP SWAP2 SWAP1 POP JUMP JUMPDEST PUSH0 PUSH1 0x20 DUP3 ADD SWAP1 POP DUP2 DUP2 SUB PUSH0 DUP4 ADD MSTORE PUSH2 0x1067 DUP2 PUSH2 0x102E JUMP JUMPDEST SWAP1 POP SWAP2 SWAP1 POP JUMP JUMPDEST PUSH32 0x5468697320576F726C642049442068617320616C7265616479206265656E2075 PUSH0 DUP3 ADD MSTORE PUSH32 0x7365642E00000000000000000000000000000000000000000000000000000000 PUSH1 0x20 DUP3 ADD MSTORE POP JUMP JUMPDEST PUSH0 PUSH2 0x10C8 PUSH1 0x24 DUP4 PUSH2 0xBC3 JUMP JUMPDEST SWAP2 POP PUSH2 0x10D3 DUP3 PUSH2 0x106E JUMP JUMPDEST PUSH1 0x40 DUP3 ADD SWAP1 POP SWAP2 SWAP1 POP JUMP JUMPDEST PUSH0 PUSH1 0x20 DUP3 ADD SWAP1 POP DUP2 DUP2 SUB PUSH0 DUP4 ADD MSTORE PUSH2 0x10F5 DUP2 PUSH2 0x10BC JUMP JUMPDEST SWAP1 POP SWAP2 SWAP1 POP JUMP JUMPDEST PUSH0 DUP2 PUSH1 0x60 SHL SWAP1 POP SWAP2 SWAP1 POP JUMP JUMPDEST PUSH0 PUSH2 0x1112 DUP3 PUSH2 0x10FC JUMP JUMPDEST SWAP1 POP SWAP2 SWAP1 POP JUMP JUMPDEST PUSH0 PUSH2 0x1123 DUP3 PUSH2 0x1108 JUMP JUMPDEST SWAP1 POP SWAP2 SWAP1 POP JUMP JUMPDEST PUSH2 0x113B PUSH2 0x1136 DUP3 PUSH2 0xB44 JUMP JUMPDEST PUSH2 0x1119 JUMP JUMPDEST DUP3 MSTORE POP POP JUMP JUMPDEST PUSH0 PUSH2 0x114C DUP3 DUP5 PUSH2 0x112A JUMP JUMPDEST PUSH1 0x14 DUP3 ADD SWAP2 POP DUP2 SWAP1 POP SWAP3 SWAP2 POP POP JUMP JUMPDEST PUSH0 DUP2 SWAP1 POP SWAP3 SWAP2 POP POP JUMP JUMPDEST PUSH32 0x68756D616E776F726B2D70726F746F636F6C0000000000000000000000000000 PUSH0 DUP3 ADD MSTORE POP JUMP JUMPDEST PUSH0 PUSH2 0x1199 PUSH1 0x12 DUP4 PUSH2 0x115B JUMP JUMPDEST SWAP2 POP PUSH2 0x11A4 DUP3 PUSH2 0x1165 JUMP JUMPDEST PUSH1 0x12 DUP3 ADD SWAP1 POP SWAP2 SWAP1 POP JUMP JUMPDEST PUSH0 PUSH2 0x11B9 DUP3 PUSH2 0x118D JUMP JUMPDEST SWAP2 POP DUP2 SWAP1 POP SWAP2 SWAP1 POP JUMP JUMPDEST PUSH0 DUP2 SWAP1 POP SWAP2 SWAP1 POP JUMP JUMPDEST PUSH0 DUP2 SWAP1 POP SWAP2 SWAP1 POP JUMP JUMPDEST PUSH0 PUSH2 0x11EF PUSH2 0x11EA PUSH2 0x11E5 DUP5 PUSH2 0x11C3 JUMP JUMPDEST PUSH2 0x11CC JUMP JUMPDEST PUSH2 0xA94 JUMP JUMPDEST SWAP1 POP SWAP2 SWAP1 POP JUMP JUMPDEST PUSH2 0x11FF DUP2 PUSH2 0x11D5 JUMP JUMPDEST DUP3 MSTORE POP POP JUMP JUMPDEST DUP3 DUP2 DUP4 CALLDATACOPY POP POP POP JUMP JUMPDEST PUSH2 0x121B PUSH2 0x100 DUP4 DUP4 PUSH2 0x1205 JUMP JUMPDEST POP POP JUMP JUMPDEST PUSH0 PUSH2 0x1A0 DUP3 ADD SWAP1 POP PUSH2 0x1233 PUSH0 DUP4 ADD DUP10 PUSH2 0xC29 JUMP JUMPDEST PUSH2 0x1240 PUSH1 0x20 DUP4 ADD DUP9 PUSH2 0x11F6 JUMP JUMPDEST PUSH2 0x124D PUSH1 0x40 DUP4 ADD DUP8 PUSH2 0xC29 JUMP JUMPDEST PUSH2 0x125A PUSH1 0x60 DUP4 ADD DUP7 PUSH2 0xC29 JUMP JUMPDEST PUSH2 0x1267 PUSH1 0x80 DUP4 ADD DUP6 PUSH2 0xC29 JUMP JUMPDEST PUSH2 0x1274 PUSH1 0xA0 DUP4 ADD DUP5 PUSH2 0x120E JUMP JUMPDEST SWAP8 SWAP7 POP POP POP POP POP POP POP JUMP JUMPDEST PUSH0 DUP2 SWAP1 POP DUP2 PUSH0 MSTORE PUSH1 0x20 PUSH0 KECCAK256 SWAP1 POP SWAP2 SWAP1 POP JUMP JUMPDEST PUSH0 PUSH1 0x20 PUSH1 0x1F DUP4 ADD DIV SWAP1 POP SWAP2 SWAP1 POP JUMP JUMPDEST PUSH0 DUP3 DUP3 SHL SWAP1 POP SWAP3 SWAP2 POP POP JUMP JUMPDEST PUSH0 PUSH1 0x8 DUP4 MUL PUSH2 0x12DB PUSH32 0xFFFFFFFFFFFFFFFFFFFFFFFFFFFFFFFFFFFFFFFFFFFFFFFFFFFFFFFFFFFFFFFF DUP3 PUSH2 0x12A0 JUMP JUMPDEST PUSH2 0x12E5 DUP7 DUP4 PUSH2 0x12A0 JUMP JUMPDEST SWAP6 POP DUP1 NOT DUP5 AND SWAP4 POP DUP1 DUP7 AND DUP5 OR SWAP3 POP POP POP SWAP4 SWAP3 POP POP POP JUMP JUMPDEST PUSH0 PUSH2 0x1317 PUSH2 0x1312 PUSH2 0x130D DUP5 PUSH2 0xA94 JUMP JUMPDEST PUSH2 0x11CC JUMP JUMPDEST PUSH2 0xA94 JUMP JUMPDEST SWAP1 POP SWAP2 SWAP1 POP JUMP JUMPDEST PUSH0 DUP2 SWAP1 POP SWAP2 SWAP1 POP JUMP JUMPDEST PUSH2 0x1330 DUP4 PUSH2 0x12FD JUMP JUMPDEST PUSH2 0x1344 PUSH2 0x133C DUP3 PUSH2 0x131E JUMP JUMPDEST DUP5 DUP5 SLOAD PUSH2 0x12AC JUMP JUMPDEST DUP3 SSTORE POP POP POP POP JUMP JUMPDEST PUSH0 PUSH0 SWAP1 POP SWAP1 JUMP JUMPDEST PUSH2 0x135B PUSH2 0x134C JUMP JUMPDEST PUSH2 0x1366 DUP2 DUP5 DUP5 PUSH2 0x1327 JUMP JUMPDEST POP POP POP JUMP JUMPDEST JUMPDEST DUP2 DUP2 LT ISZERO PUSH2 0x1389 JUMPI PUSH2 0x137E PUSH0 DUP3 PUSH2 0x1353 JUMP JUMPDEST PUSH1 0x1 DUP2 ADD SWAP1 POP PUSH2 0x136C JUMP JUMPDEST POP POP JUMP JUMPDEST PUSH1 0x1F DUP3 GT ISZERO PUSH2 0x13CE JUMPI PUSH2 0x139F DUP2 PUSH2 0x127F JUMP JUMPDEST PUSH2 0x13A8 DUP5 PUSH2 0x1291 JUMP JUMPDEST DUP2 ADD PUSH1 0x20 DUP6 LT ISZERO PUSH2 0x13B7 JUMPI DUP2 SWAP1 POP JUMPDEST PUSH2 0x13CB PUSH2 0x13C3 DUP6 PUSH2 0x1291 JUMP JUMPDEST DUP4 ADD DUP3 PUSH2 0x136B JUMP JUMPDEST POP POP JUMPDEST POP POP POP JUMP JUMPDEST PUSH0 DUP3 DUP3 SHR SWAP1 POP SWAP3 SWAP2 POP POP JUMP JUMPDEST PUSH0 PUSH2 0x13EE PUSH0 NOT DUP5 PUSH1 0x8 MUL PUSH2 0x13D3 JUMP JUMPDEST NOT DUP1 DUP4 AND SWAP2 POP POP SWAP3 SWAP2 POP POP JUMP JUMPDEST PUSH0 PUSH2 0x1406 DUP4 DUP4 PUSH2 0x13DF JUMP JUMPDEST SWAP2 POP DUP3 PUSH1 0x2 MUL DUP3 OR SWAP1 POP SWAP3 SWAP2 POP POP JUMP JUMPDEST PUSH2 0x141F DUP3 PUSH2 0xBB9 JUMP JUMPDEST PUSH8 0xFFFFFFFFFFFFFFFF DUP2 GT ISZERO PUSH2 0x1438 JUMPI PUSH2 0x1437 PUSH2 0xCEF JUMP JUMPDEST JUMPDEST PUSH2 0x1442 DUP3 SLOAD PUSH2 0xFD6 JUMP JUMPDEST PUSH2 0x144D DUP3 DUP3 DUP6 PUSH2 0x138D JUMP JUMPDEST PUSH0 PUSH1 0x20 SWAP1 POP PUSH1 0x1F DUP4 GT PUSH1 0x1 DUP2 EQ PUSH2 0x147E JUMPI PUSH0 DUP5 ISZERO PUSH2 0x146C JUMPI DUP3 DUP8 ADD MLOAD SWAP1 POP JUMPDEST PUSH2 0x1476 DUP6 DUP3 PUSH2 0x13FB JUMP JUMPDEST DUP7 SSTORE POP PUSH2 0x14DD JUMP JUMPDEST PUSH1 0x1F NOT DUP5 AND PUSH2 0x148C DUP7 PUSH2 0x127F JUMP JUMPDEST PUSH0 JUMPDEST DUP3 DUP2 LT ISZERO PUSH2 0x14B3 JUMPI DUP5 DUP10 ADD MLOAD DUP3 SSTORE PUSH1 0x1 DUP3 ADD SWAP2 POP PUSH1 0x20 DUP6 ADD SWAP5 POP PUSH1 0x20 DUP2 ADD SWAP1 POP PUSH2 0x148E JUMP JUMPDEST DUP7 DUP4 LT ISZERO PUSH2 0x14D0 JUMPI DUP5 DUP10 ADD MLOAD PUSH2 0x14CC PUSH1 0x1F DUP10 AND DUP3 PUSH2 0x13DF JUMP JUMPDEST DUP4 SSTORE POP JUMPDEST PUSH1 0x1 PUSH1 0x2 DUP9 MUL ADD DUP9 SSTORE POP POP POP JUMPDEST POP POP POP POP POP POP JUMP JUMPDEST PUSH0 PUSH1 0x60 DUP3 ADD SWAP1 POP PUSH2 0x14F8 PUSH0 DUP4 ADD DUP7 PUSH2 0xAFD JUMP JUMPDEST DUP2 DUP2 SUB PUSH1 0x20 DUP4 ADD MSTORE PUSH2 0x150A DUP2 DUP6 PUSH2 0xBF1 JUMP JUMPDEST SWAP1 POP PUSH2 0x1519 PUSH1 0x40 DUP4 ADD DUP5 PUSH2 0xC29 JUMP JUMPDEST SWAP5 SWAP4 POP POP POP POP JUMP JUMPDEST PUSH32 0x55736572206973206E6F7420726567697374657265642E000000000000000000 PUSH0 DUP3 ADD MSTORE POP JUMP JUMPDEST PUSH0 PUSH2 0x1555 PUSH1 0x17 DUP4 PUSH2 0xBC3 JUMP JUMPDEST SWAP2 POP PUSH2 0x1560 DUP3 PUSH2 0x1521 JUMP JUMPDEST PUSH1 0x20 DUP3 ADD SWAP1 POP SWAP2 SWAP1 POP JUMP JUMPDEST PUSH0 PUSH1 0x20 DUP3 ADD SWAP1 POP DUP2 DUP2 SUB PUSH0 DUP4 ADD MSTORE PUSH2 0x1582 DUP2 PUSH2 0x1549 JUMP JUMPDEST SWAP1 POP SWAP2 SWAP1 POP JUMP JUMPDEST PUSH0 PUSH1 0x20 DUP3 ADD SWAP1 POP DUP2 DUP2 SUB PUSH0 DUP4 ADD MSTORE PUSH2 0x15A1 DUP2 DUP5 PUSH2 0xBF1 JUMP JUMPDEST SWAP1 POP SWAP3 SWAP2 POP POP JUMP JUMPDEST PUSH32 0x55736572206E6F7420666F756E642E0000000000000000000000000000000000 PUSH0 DUP3 ADD MSTORE POP JUMP JUMPDEST PUSH0 PUSH2 0x15DD PUSH1 0xF DUP4 PUSH2 0xBC3 JUMP JUMPDEST SWAP2 POP PUSH2 0x15E8 DUP3 PUSH2 0x15A9 JUMP JUMPDEST PUSH1 0x20 DUP3 ADD SWAP1 POP SWAP2 SWAP1 POP JUMP JUMPDEST PUSH0 PUSH1 0x20 DUP3 ADD SWAP1 POP DUP2 DUP2 SUB PUSH0 DUP4 ADD MSTORE PUSH2 0x160A DUP2 PUSH2 0x15D1 JUMP JUMPDEST SWAP1 POP SWAP2 SWAP1 POP JUMP JUMPDEST PUSH32 0x4E487B7100000000000000000000000000000000000000000000000000000000 PUSH0 MSTORE PUSH1 0x11 PUSH1 0x4 MSTORE PUSH1 0x24 PUSH0 REVERT JUMPDEST PUSH0 PUSH2 0x1648 DUP3 PUSH2 0xA94 JUMP JUMPDEST SWAP2 POP PUSH32 0xFFFFFFFFFFFFFFFFFFFFFFFFFFFFFFFFFFFFFFFFFFFFFFFFFFFFFFFFFFFFFFFF DUP3 SUB PUSH2 0x167A JUMPI PUSH2 0x1679 PUSH2 0x1611 JUMP JUMPDEST JUMPDEST PUSH1 0x1 DUP3 ADD SWAP1 POP SWAP2 SWAP1 POP JUMP JUMPDEST PUSH0 PUSH1 0x20 DUP3 ADD SWAP1 POP PUSH2 0x1698 PUSH0 DUP4 ADD DUP5 PUSH2 0xC29 JUMP JUMPDEST SWAP3 SWAP2 POP POP JUMP INVALID LOG2 PUSH5 0x6970667358 0x22 SLT KECCAK256 0x1E MSTORE 0xC PUSH8 0x95532438C1564580 TIMESTAMP CALLVALUE SWAP14 CALLVALUE 0xEA 0x25 PUSH8 0x37B2DDA1E2ACA512 0xBF BLOBHASH 0xCB 0x21 MCOPY PUSH5 0x736F6C6343 STOP ADDMOD 0x1E STOP CALLER "
		},
		"gasEstimates": {
			"creation": {
				"codeDepositCost": "1168800",
				"executionCost": "infinite",
				"totalCost": "infinite"
			},
			"external": {
				"addGitHubProof(string)": "infinite",
				"isRegistered(address)": "2855",
				"nullifierHashes(uint256)": "2763",
				"registerUser(string,string,bool,uint256,uint256,uint256[8])": "infinite",
				"updateReputation(address,uint256)": "infinite",
				"users(address)": "infinite"
			}
		},
		"methodIdentifiers": {
			"addGitHubProof(string)": "f5bcfdb2",
			"isRegistered(address)": "c3c5a547",
			"nullifierHashes(uint256)": "1f79a1e9",
			"registerUser(string,string,bool,uint256,uint256,uint256[8])": "db5faa4f",
			"updateReputation(address,uint256)": "f5c91a08",
			"users(address)": "a87430ba"
		}
	},
	"abi": [
		{
			"inputs": [
				{
					"internalType": "address",
					"name": "_worldId",
					"type": "address"
				}
			],
			"stateMutability": "nonpayable",
			"type": "constructor"
		},
		{
			"anonymous": false,
			"inputs": [
				{
					"indexed": true,
					"internalType": "address",
					"name": "user",
					"type": "address"
				},
				{
					"indexed": false,
					"internalType": "string",
					"name": "githubProofCID",
					"type": "string"
				}
			],
			"name": "GitHubProofAdded",
			"type": "event"
		},
		{
			"anonymous": false,
			"inputs": [
				{
					"indexed": true,
					"internalType": "address",
					"name": "user",
					"type": "address"
				},
				{
					"indexed": false,
					"internalType": "uint256",
					"name": "newReputation",
					"type": "uint256"
				}
			],
			"name": "ReputationUpdated",
			"type": "event"
		},
		{
			"anonymous": false,
			"inputs": [
				{
					"indexed": true,
					"internalType": "address",
					"name": "user",
					"type": "address"
				},
				{
					"indexed": false,
					"internalType": "bool",
					"name": "isFreelancer",
					"type": "bool"
				},
				{
					"indexed": false,
					"internalType": "string",
					"name": "profileCID",
					"type": "string"
				},
				{
					"indexed": false,
					"internalType": "uint256",
					"name": "chainId",
					"type": "uint256"
				}
			],
			"name": "UserRegistered",
			"type": "event"
		},
		{
			"inputs": [
				{
					"internalType": "string",
					"name": "_githubProofCID",
					"type": "string"
				}
			],
			"name": "addGitHubProof",
			"outputs": [],
			"stateMutability": "nonpayable",
			"type": "function"
		},
		{
			"inputs": [
				{
					"internalType": "address",
					"name": "",
					"type": "address"
				}
			],
			"name": "isRegistered",
			"outputs": [
				{
					"internalType": "bool",
					"name": "",
					"type": "bool"
				}
			],
			"stateMutability": "view",
			"type": "function"
		},
		{
			"inputs": [
				{
					"internalType": "uint256",
					"name": "",
					"type": "uint256"
				}
			],
			"name": "nullifierHashes",
			"outputs": [
				{
					"internalType": "bool",
					"name": "",
					"type": "bool"
				}
			],
			"stateMutability": "view",
			"type": "function"
		},
		{
			"inputs": [
				{
					"internalType": "string",
					"name": "_profileCID",
					"type": "string"
				},
				{
					"internalType": "string",
					"name": "_credentialsCID",
					"type": "string"
				},
				{
					"internalType": "bool",
					"name": "_isFreelancer",
					"type": "bool"
				},
				{
					"internalType": "uint256",
					"name": "root",
					"type": "uint256"
				},
				{
					"internalType": "uint256",
					"name": "nullifierHash",
					"type": "uint256"
				},
				{
					"internalType": "uint256[8]",
					"name": "proof",
					"type": "uint256[8]"
				}
			],
			"name": "registerUser",
			"outputs": [],
			"stateMutability": "nonpayable",
			"type": "function"
		},
		{
			"inputs": [
				{
					"internalType": "address",
					"name": "_user",
					"type": "address"
				},
				{
					"internalType": "uint256",
					"name": "_newReputation",
					"type": "uint256"
				}
			],
			"name": "updateReputation",
			"outputs": [],
			"stateMutability": "nonpayable",
			"type": "function"
		},
		{
			"inputs": [
				{
					"internalType": "address",
					"name": "",
					"type": "address"
				}
			],
			"name": "users",
			"outputs": [
				{
					"internalType": "address",
					"name": "wallet",
					"type": "address"
				},
				{
					"internalType": "string",
					"name": "profileCID",
					"type": "string"
				},
				{
					"internalType": "string",
					"name": "credentialsCID",
					"type": "string"
				},
				{
					"internalType": "string",
					"name": "githubProofCID",
					"type": "string"
				},
				{
					"internalType": "bool",
					"name": "isVerified",
					"type": "bool"
				},
				{
					"internalType": "bool",
					"name": "isFreelancer",
					"type": "bool"
				},
				{
					"internalType": "uint256",
					"name": "reputation",
					"type": "uint256"
				},
				{
					"internalType": "uint256",
					"name": "registrationTime",
					"type": "uint256"
				},
				{
					"internalType": "uint256",
					"name": "completedProjects",
					"type": "uint256"
				},
				{
					"internalType": "uint256",
					"name": "chainId",
					"type": "uint256"
				}
			],
			"stateMutability": "view",
			"type": "function"
		}
	]
}